:03000000020800F3
:0C080000787FE4F6D8FD758145020847BA
:100A9D000408FF10947B160C800800001102AAAA0E
:100AAD00AAAAAAAAAAAAFFFFFFFFFFFFFFFF05221E
:050ABD0000C00000086C
:060ACD00E4FF0FBF13FC63
:010AD3002200
:060AD400E4FF0FBF3AFC35
:010ADA0022F9
:0A0AC300D2A0C2A2120AD4D2A222CD
:02088C008F419A
:10088E00E4F542AF41EF3395E0FEC3E5429FEE64DF
:10089E0080F8748098504A20A0FD120ACDE4FE1212
:1008AE000AD4E4FF0FBF03FC74272542F8C000E60C
:1008BE00FFC313D000F630A00974272542F8E64492
:1008CE0080F60EBE08D9120AD474272542F8E6A285
:1008DE00A030D001B34006120AD4120AD4054280C9
:0108EE00A267
:0108EF0022E6
:0208F0008F4136
:1008F200E4F542AF41EF3395E0FEC3E5429FEE647B
:1009020080F8748098504A20A0FDE4FF0FBF05FCD8
:10091200E4FEE4FF0FBF05FC74272542F8C000E6A1
:10092200FDC313D000F630A00974272542F8E6442F
:1009320080F60EBE08DCE4FF0FBF0AFC74272542D6
:10094200F8E6A2A030D001B34003120ACD054280DE
:01095200A202
:010953002281
:080A12008F418B428A438944A5
:100A1A00E4FEEEC39541504DAB42AA43A9448E82EF
:100A2A00758300120A70FFA2D0E433F545AD07C200
:100A3A00A0E4FC120AD4E4FF0FBF05FCED30E00489
:100A4A00D2A08002C2A0EDC313FD0CBC08E5120AB5
:100A5A00D4E54524FF92A0120AD4D2A0120AD412D5
:050A6A000AD40E80AD6E
:010A6F002264
:080954008F418B428A43894464
:10095C00E4FFEFC39541504EAB42AA43A9448F82AA
:10096C00758300120A70FDA2D0E433F545C2A0E4F1
:10097C00FCE4FE0EBE07FCED30E004D2A08002C207
:10098C00A0EDC313FD0CBC08E8E4FE0EBE09FCE5AB
:10099C004524FF92A0E4FE0EBE09FCD2A0E4FE0E9C
:0609AC00BE0BFC0F80AC45
:0109B2002222
:1009B300850D40120AC37F1112088C120AD47B00E2
:1009C3007A0079087F04120A127F0412088C7B00D4
:1009D3007A00790C7F051209547F011208F0E5278C
:1009E300B540107B007A0079117F111209547F0200
:1009F3001208F0E527B46115E528B408107B007AE6
:0F0A03000079227F051209547F0B1208F080FE44
:10080C000209B3E493A3F8E493A34003F68001F246
:10081C0008DFF48029E493A3F85407240CC8C333ED
:10082C00C4540F4420C8834004F456800146F6DFBC
:10083C00E4800B0102040810204080900A9DE47EA5
:10084C00019360BCA3FF543F30E509541FFEE493B1
:10085C00A360010ECF54C025E060A840B8E493A378
:10086C00FAE493A3F8E493A3C8C582C8CAC583CAA3
:10087C00F0A3C8C582C8CAC583CADFE9DEE780BE5B
:010AC2000033
:100A7000BB010CE58229F582E5833AF583E022503B
:100A800006E92582F8E622BBFE06E92582F8E22285
:0D0A9000E58229F582E5833AF583E493229F
:00000001FF
