:1041870090058E7412F07434F090058C7477F0A358
:044197007488F02216
:084000008E288F298C2A8D2BDC
:104008008F828E83A3E0F52C7003124187E52CB4D0
:10401800010BAD2BAC2AAF29AE28124050E52CB4C9
:10402800020BAD2BAC2AAF29AE28124100E52CB407
:104038000307AF2BAE2A124155E52CB40407AF2B6A
:07404800AE2A12416F7F0157
:01404F00224E
:0D419B007E047F807C047D8112400080FE48
:030000000241A812
:0641A80075813002419B0D
:084100008E2D8F2E8C2F8D30C7
:10410800E4F9E9FF7E00240AFDEE33FCE52E2DF5E7
:1041180082E52D3CF583E0FDEF2402FFEE33FEE55A
:104128002E2FF582E52D3EF583E06DFFE92401FD94
:10413800E433FCE5302DF582E52F3CF583EFF009FB
:0C414800B908BF853082852F837408F011
:014154002248
:044050008C2D8D2EF8
:104054009005837408F0E4F9E92402FDE433FCEFED
:104064002DF582EE3CF583E0FD748429F582E43479
:1040740005F583EDF009B908DFEF240AF582E43E83
:10408400F583E0900482F0E4F9900482E0FDE9C352
:104094009D5020E9240BFDE433FCEF2DF582EE3C2A
:1040A400F583E0FD748329F582E43404F583EDF0AF
:1040B4000980D67E047F827C057D837A057B03128A
:1040C4001040E4F9900503E0FFE9C39F5022740413
:1040D40029F582E43405F583E0FFE92401FDE433A6
:1040E400FCE52E2DF582E52D3CF583EFF00980D417
:0B40F400900503E0852E82852D83F0EF
:0140FF00229E
:104155008E2D8F2EEF2401FFE43EFE7D10121020E0
:0A416500852E82852D837410F02250
:10416F008E2D8F2EEF2401FFE43EFE121060852E60
:08417F0082852D837408F022F3
:00000001FF
