:03000000020800F3
:0C080000787FE4F6D8FD758127020847D8
:0709540005080084000010FB
:06095C00E4FF0FBF03FCE5
:010962002272
:06096300E4FF0FBF1CFCC5
:01096900226B
:0D09470012095CD2A0C2A2120963D2A22242
:02088C008F26B5
:10088E00E4F527AF26EF3395E0FEC3E5279FEE6430
:10089E0080F8748098504120A0FDE4FE1209637424
:1008AE000D2527F8C000E6FFC313D000F630A009CF
:1008BE00740D2527F8E64480F60EBE08DF12096394
:1008CE00740D2527F8E6A2A030D001B34006120918
:0808DE0063120963052780ABDA
:0108E60022EF
:1008E700E4FE74082EF8E6A2D0E433F526C2A0E4AD
:1008F700FD12096374082EF8E6FF30E004D2A080E9
:1009070002C2A074082EF8EFC313F60DBD08E21259
:100917000963E52624FF92A0120963D2A012096396
:070927001209630EBE05BBBF
:01092E0022A6
:10092F001209477F1112088C1209631208E77F130F
:08093F0012088C851E8080FE69
:10080C0002092FE493A3F8E493A34003F68001F2CA
:10081C0008DFF48029E493A3F85407240CC8C333ED
:10082C00C4540F4420C8834004F456800146F6DFBC
:10083C00E4800B0102040810204080900954E47EEF
:10084C00019360BCA3FF543F30E509541FFEE493B1
:10085C00A360010ECF54C025E060A840B8E493A378
:10086C00FAE493A3F8E493A3C8C582C8CAC583CAA3
:10087C00F0A3C8C582C8CAC583CADFE9DEE780BE5B
:01095B00009B
:00000001FF
