:03000000020800F3
:0C080000787FE4F6D8FD758139020847C6
:100989001408A3A31102AAAAAAAAAAAAAAAAFFFF9B
:06099900FFFFFFFFFFFF5E
:0609AD00E4FF0FBF03FC94
:0109B3002221
:0609B400E4FF0FBF1CFC74
:0109BA00221A
:0D09A0001209ADD2A0C2A21209B4D2A22247
:02088C008F35A6
:10088E00E4F536AF35EF3395E0FEC3E5369FEE6403
:10089E0080F8748098504120A0FDE4FE1209B474D3
:1008AE001C2536F8C000E6FFC313D000F630A009B1
:1008BE00741C2536F8E64480F60EBE08DF1209B425
:1008CE00741C2536F8E6A2A030D001B340061209FA
:0808DE00B41209B4053680AB29
:0108E60022EF
:0808E7008F358B368A37893802
:1008EF00E4FEEEC395355047AB36AA37A9388E8252
:1008FF0075830012093FFFA2D0E433F539AD07C26B
:10090F00A0E4FC1209B4ED30E004D2A08002C2A032
:10091F00EDC313FD0CBC08EB1209B4E53924FF92AB
:0F092F00A01209B4D2A01209B41209B40E80B3F9
:01093E002296
:10096C001209A07F1112088C1209B47B007A00794D
:0D097C00087F141208E77F0A12088C80FE25
:10080C0002096CE493A3F8E493A34003F68001F28D
:10081C0008DFF48029E493A3F85407240CC8C333ED
:10082C00C4540F4420C8834004F456800146F6DFBC
:10083C00E4800B0102040810204080900989E47EBA
:10084C00019360BCA3FF543F30E509541FFEE493B1
:10085C00A360010ECF54C025E060A840B8E493A378
:10086C00FAE493A3F8E493A3C8C582C8CAC583CAA3
:10087C00F0A3C8C582C8CAC583CADFE9DEE780BE5B
:01099F000057
:10093F00BB010CE58229F582E5833AF583E022506D
:10094F0006E92582F8E622BBFE06E92582F8E222B7
:0D095F00E58229F582E5833AF583E49322D1
:00000001FF
