:03000000020800F3
:0C080000787FE4F6D8FD75813C020847C3
:100A6B000408FF10947B130CA31102AAAAAAAAAA2A
:0B0A7B00AAAAAAFFFFFFFFFFFFFFFF7A
:060A9100E4FF0FBF13FC9F
:010A9700223C
:060A9800E4FF0FBF3AFC71
:010A9E002235
:0A0A8700D2A0C2A2120A98D2A22245
:02088C008F38A3
:10088E00E4F539AF38EF3395E0FEC3E5399FEE64FA
:10089E0080F8748098504A20A0FD120A91E4FE124E
:1008AE000A98E4FF0FBF03FC741F2539F8C000E659
:1008BE00FFC313D000F630A009741F2539F8E644A3
:1008CE0080F60EBE08D9120A98741F2539F8E6A2D2
:1008DE00A030D001B34006120A98120A980539804A
:0108EE00A267
:0108EF0022E6
:0208F0008F383F
:1008F200E4F539AF38EF3395E0FEC3E5399FEE6496
:1009020080F8748098504A20A0FDE4FF0FBF05FCD8
:10091200E4FEE4FF0FBF05FC741F2539F8C000E6B2
:10092200FDC313D000F630A009741F2539F8E64440
:1009320080F60EBE08DCE4FF0FBF0AFC741F2539E7
:10094200F8E6A2A030D001B34003120A9105398023
:01095200A202
:010953002281
:0809B3008F388B398A3A893B29
:1009BB00E4FEEEC39538504DAB39AA3AA93B8E8273
:1009CB00758300120A3EFFA2D0E433F53CAD07C29B
:1009DB00A0E4FC120A98E4FF0FBF05FCED30E00425
:1009EB00D2A08002C2A0EDC313FD0CBC08E5120A15
:1009FB0098E53C24FF92A0120A98D2A0120A9812F2
:050A0B000A980E80AD09
:010A100022C3
:080954008F388B398A3A893B88
:10095C00E4FFEFC39538504EAB39AA3AA93B8F82CE
:10096C00758300120A3EFDA2D0E433F53CC2A0E42C
:10097C00FCE4FE0EBE07FCED30E004D2A08002C207
:10098C00A0EDC313FD0CBC08E8E4FE0EBE09FCE5AB
:10099C003C24FF92A0E4FE0EBE09FCD2A0E4FE0EA5
:0609AC00BE0BFC0F80AC45
:0109B2002222
:100A1100120A877F1112088C120A987B007A0079DA
:100A2100087F041209B37F0412088C7B007A0079D5
:0D0A31000C7F131209547F0A1208F080FE9A
:10080C00020A11E493A3F8E493A34003F68001F2E7
:10081C0008DFF48029E493A3F85407240CC8C333ED
:10082C00C4540F4420C8834004F456800146F6DFBC
:10083C00E4800B0102040810204080900A6BE47ED7
:10084C00019360BCA3FF543F30E509541FFEE493B1
:10085C00A360010ECF54C025E060A840B8E493A378
:10086C00FAE493A3F8E493A3C8C582C8CAC583CAA3
:10087C00F0A3C8C582C8CAC583CADFE9DEE780BE5B
:010A8600006F
:100A3E00BB010CE58229F582E5833AF583E022506D
:100A4E0006E92582F8E622BBFE06E92582F8E222B7
:0D0A5E00E58229F582E5833AF583E49322D1
:00000001FF
