:03000000020800F3
:0C080000787FE4F6D8FD758141020847BE
:1009B1001608800800001102AAAAAAAAAAAAAAAA2D
:0F09C100FFFFFFFFFFFFFFFF051E00C000000844
:0609DE00E4FF0FBF03FC63
:0109E40022F0
:0609E500E4FF0FBF1CFC43
:0109EB0022E9
:0D09D1001209DED2A0C2A21209E5D2A222B4
:02088C008F3D9E
:10088E00E4F53EAF3DEF3395E0FEC3E53E9FEE64EB
:10089E0080F8748098504120A0FDE4FE1209E574A2
:1008AE0023253EF8C000E6FFC313D000F630A009A2
:1008BE007423253EF8E64480F60EBE08DF1209E5E5
:1008CE007423253EF8E6A2A030D001B340061209EB
:0808DE00E51209E5053E80ABBF
:0108E60022EF
:0808E7008F3D8B3E8A3F8940E2
:1008EF00E4FEEEC3953D5047AB3EAA3FA9408E8232
:1008FF00758300120984FFA2D0E433F541AD07C21E
:10090F00A0E4FC1209E5ED30E004D2A08002C2A001
:10091F00EDC313FD0CBC08EB1209E5E54124FF9272
:0F092F00A01209E5D2A01209E51209E50E80B366
:01093E002296
:10093F0085093C1209D17F1112088C1209E57B0041
:10094F007A0079087F051208E77F0112088CE523EA
:10095F00B53C107B007A00790D7F111208E77F02FA
:10096F0012088C7B007A00791E7F051208E77F0A38
:05097F0012088C80FE4F
:10080C0002093FE493A3F8E493A34003F68001F2BA
:10081C0008DFF48029E493A3F85407240CC8C333ED
:10082C00C4540F4420C8834004F456800146F6DFBC
:10083C00E4800B01020408102040809009B1E47E92
:10084C00019360BCA3FF543F30E509541FFEE493B1
:10085C00A360010ECF54C025E060A840B8E493A378
:10086C00FAE493A3F8E493A3C8C582C8CAC583CAA3
:10087C00F0A3C8C582C8CAC583CADFE9DEE780BE5B
:0109D0000026
:10098400BB010CE58229F582E5833AF583E0225028
:1009940006E92582F8E622BBFE06E92582F8E22272
:0D09A400E58229F582E5833AF583E493228C
:00000001FF
