:020000040000FA
:1000000090020010650100006D0100006F0100000A
:100010007101000073010000750100000000000084
:100020000000000000000000000000007701000058
:1000300079010000000000007B0100007D0100004C
:100040007F0100007F0100007F0100007F010000B0
:100050007F0100007F0100007F0100007F010000A0
:100060007F0100007F0100007F0100007F01000090
:100070007F0100007F0100007F0100007F01000080
:100080007F0100007F0100007F0100007F01000070
:100090007F0100007F0100007F0100007F01000060
:1000A0007F0100007F0100007F0100007F01000050
:1000B0007F0100007F0100007F0100007F01000040
:1000C0007F01000000F002F800F03CF80AA090E880
:1000D000000C82448344AAF10107DA4501D100F003
:1000E00031F8AFF2090EBAE80F0013F0010F18BF94
:1000F000FB1A43F0010318472805000048050000DB
:10010000103A24BF78C878C1FAD8520724BF30C843
:1001100030C144BF04680C60704700000023002415
:1001200000250026103A28BF78C1FBD8520728BF07
:1001300030C148BF0B6070471FB500F069FA1FBDA2
:1001400010B510BD00F028FA1146FFF7F5FF00F0DA
:1001500049F800F046FA03B4FFF7F2FF03BC00F0E1
:1001600051FA00000948804709480047FEE7FEE7CA
:10017000FEE7FEE7FEE7FEE7FEE7FEE7FEE7FEE757
:1001800004480549034A054B70470000410400003C
:10019000C5000000900000109002001090000010B8
:1001A0002849096C41F00101264A11641146096C85
:1001B00041F0800111641146496D21F00101516542
:1001C000002001E0411CC8B26C28FBDB1D49496DD1
:1001D00041F080011B4A51651146496D41F0010112
:1001E0005165704700F02CF900F034F8FFF7D8FFA4
:1001F000112000F064F81449042000F04EF80420A7
:1002000000F05DF883201149087306242046E117A9
:1002100004EB116109120D4A1171E11704EB116130
:100220000912A4EB012111701F20114608738720C9
:1002300008720749052000F030F80B2000F03FF865
:1002400000BFFEE700C009200400001000C000400D
:10025000080000102349096841F01001214A11608B
:100260001146096841F04001116083211E4A117353
:1002700055200146C21700EB126212121A4B1A7176
:10028000C21700EB12621212A0EB02221A701F2199
:100290001A46117387211172704710B5024600206B
:1002A0000AE00B5C104C237000BF0F4B1B7D13F05A
:1002B000200FFAD0431CD8B29042F2DB10BD0146A9
:1002C00000200BE000BF084A127D12F0010FFAD0A7
:1002D000054A1278054B1A54421CD0B28842F1DB11
:1002E0007047000000C0024000C000401000001035
:1002F000704770477047704700000000FFFFFFFF26
:1003000091480068C0F30160032868D18F480068F5
:1003100010F0030006D0012823D002283FD0032884
:100320005CD100E000BF88480068C0F30E0000F117
:1003300001004FEA4000864900FB01F08549D1F8F1
:100340008810C1F3074101F10101B0FBF1F18248CE
:100350000068C0B200F10100B1FBF0F07F49086015
:100360003CE079480068C0F30E0000F101004FEA5C
:1003700040007B4900FB01F07649D1F88810C1F3B9
:10038000074101F10101B0FBF1F173480068C0B20F
:1003900000F10100B1FBF0F0704908601EE06A480E
:1003A0000068C0F30E0000F101004FEA40004FF476
:1003B000FA4100FB01F06749D1F88810C1F3074109
:1003C00001F10101B0FBF1F163480068C0B200F136
:1003D0000100B1FBF0F06149086000BF2FE05B480D
:1003E000006810F0030006D0012810D0022819D0B0
:1003F000032823D100E000BF57480068C0B200F1D5
:1004000001005349B1FBF0F05449086016E052482E
:100410000068C0B200F101005149B1FBF0F04F4952
:1004200008600BE04C480068C0B200F101004FF4D6
:10043000FA41B1FBF0F04949086000BF00BF7047C6
:1004400020204849086000BF4648006810F0400F6F
:10045000FAD00320404908604FF001003D49C1F83F
:100460000C014148414908604FF0AA00404908602A
:100470004FF0550008604FF001003E4908604FF012
:10048000AA003B4908604FF055003249C1F88C0082
:1004900000BF2D48006810F0806FFAD00320354966
:1004A00008604FF0AA002B49C1F88C004FF05500AE
:1004B0002F49086000BF2448006810F0407FFAD040
:1004C00023202D4908604FF0AA002249C1F8AC0052
:1004D0004FF05500294908604FF001002849086095
:1004E0004FF0AA00254908604FF055001949C1F89E
:1004F000AC0000BF2348006810F4806FFAD00320DE
:100500001F4908604FF0AA001249C1F8AC004FF033
:1005100055001A49086000BF1A48006810F4407F6F
:10052000FAD00020184908600A49C1F8AC01174800
:10053000174908604FF000001649086043F23A007E
:10054000044908607047000088C00F400CC10F408C
:1005500000093D0000C00F4004C10F400000001022
:10056000001BB700A0C10F406300050084C00F400E
:100570008CC00F4080C00F40A4C00F40ACC00F40E3
:10058000A0C00F40A8C00F40A8C10F40DE872804BC
:10059000C4C00F40C8C10F40754600F029F8AE46F0
:1005A00005006946534620F00700854618B020B57F
:1005B000FFF7E6FDBDE820404FF000064FF00007D2
:1005C0004FF000084FF0000B21F00701AC46ACE8FB
:1005D000C009ACE8C009ACE8C009ACE8C0098D4668
:1005E00070470446AFF300802046FFF7B4FD0000DB
:1005F000004870472C00001001487047704700BF4A
:100600003000001001491820ABBEFEE726000200B2
:1006100010B5FFF7F1FF4FF00001016010BD0000C1
:100620004006000000000010100000000001000063
:100630005006000010000010800200001C010000A5
:1006400000E1F505FF109679008400000800000025
:04000005000000C532
:00000001FF
