:03000000020800F3
:0C080000787FE4F6D8FD758146020847B9
:100A9D000408FF10947B170C80080000120101025E
:100AAD0003040506070808112233445566778805A7
:060ABD002300C000000848
:060ACE00E4FF0FBF13FC62
:010AD40022FF
:060AD500E4FF0FBF3AFC34
:010ADB0022F8
:0A0AC400D2A0C2A2120AD5D2A222CB
:02088C008F4299
:10088E00E4F543AF42EF3395E0FEC3E5439FEE64DC
:10089E0080F8748098504A20A0FD120ACEE4FE1211
:1008AE000AD5E4FF0FBF03FC74282543F8C000E609
:1008BE00FFC313D000F630A00974282543F8E64490
:1008CE0080F60EBE08D9120AD574282543F8E6A282
:1008DE00A030D001B34006120AD5120AD5054380C6
:0108EE00A267
:0108EF0022E6
:0208F0008F4235
:1008F200E4F543AF42EF3395E0FEC3E5439FEE6478
:1009020080F8748098504A20A0FDE4FF0FBF05FCD8
:10091200E4FEE4FF0FBF05FC74282543F8C000E69F
:10092200FDC313D000F630A00974282543F8E6442D
:1009320080F60EBE08DCE4FF0FBF0AFC74282543D4
:10094200F8E6A2A030D001B34003120ACE054380DC
:01095200A202
:010953002281
:080A12008F428B438A448945A1
:100A1A00E4FEEEC39542504DAB43AA44A9458E82EB
:100A2A00758300120A70FFA2D0E433F546AD07C2FF
:100A3A00A0E4FC120AD5E4FF0FBF05FCED30E00488
:100A4A00D2A08002C2A0EDC313FD0CBC08E5120AB5
:100A5A00D5E54624FF92A0120AD5D2A0120AD512D1
:050A6A000AD50E80AD6D
:010A6F002264
:080954008F428B438A44894560
:10095C00E4FFEFC39542504EAB43AA44A9458F82A6
:10096C00758300120A70FDA2D0E433F546C2A0E4F0
:10097C00FCE4FE0EBE07FCED30E004D2A08002C207
:10098C00A0EDC313FD0CBC08E8E4FE0EBE09FCE5AB
:10099C004624FF92A0E4FE0EBE09FCD2A0E4FE0E9B
:0609AC00BE0BFC0F80AC45
:0109B2002222
:1009B300850D41120AC47F1112088C120AD57B00DF
:1009C3007A0079087F04120A127F0412088C7B00D4
:1009D3007A00790C7F051209547F011208F0E5288B
:1009E300B541107B007A0079117F121209547F02FE
:1009F3001208F0E528B46115E529B408107B007AE4
:0F0A03000079237F051209547F0B1208F080FE43
:10080C000209B3E493A3F8E493A34003F68001F246
:10081C0008DFF48029E493A3F85407240CC8C333ED
:10082C00C4540F4420C8834004F456800146F6DFBC
:10083C00E4800B0102040810204080900A9DE47EA5
:10084C00019360BCA3FF543F30E509541FFEE493B1
:10085C00A360010ECF54C025E060A840B8E493A378
:10086C00FAE493A3F8E493A3C8C582C8CAC583CAA3
:10087C00F0A3C8C582C8CAC583CADFE9DEE780BE5B
:010AC3000032
:100A7000BB010CE58229F582E5833AF583E022503B
:100A800006E92582F8E622BBFE06E92582F8E22285
:0D0A9000E58229F582E5833AF583E493229F
:00000001FF
