:084000008E288F298C2A8D2BDC
:104008008F828E83A3E0F52CB40103124039E52C8E
:10401800B4020BAD2BAC2AAF29AE28124142E52CD5
:10402800B4030BAD2BAC2AAF29AE281240F47F01A4
:014038002265
:0D4180007E047F807C047D8112400080FE63
:0300000002418D2D
:06418D0075813202418041
:104142008C2D8D2EAB07AA068B828A83A3A3E0FE59
:104152008B828A83A3A3A3E07C002400FFEC3EFEB3
:10416200EB2405FDE43AFCEB2404F582E43AF58302
:0E417200E0FB121010852E82852D83E4F022D2
:1040F4008E2D8F2E8C2F8D308F828E83A3A3E0FE86
:10410400852E82852D83A3A3A3E07C002400FFECED
:104114003EFEED2401FDE4352FFCE52E2404F5825A
:10412400E4352DF583E0FB121000E52E2404F5821E
:0E413400E4352DF583E0853082852F83F0225F
:084039008E2D8F2E8C2F8D308F
:104041009005837410F0AC31AD32FBE4FFFE121029
:1040510000E4F9E53229F582E43531F583E0FF74B6
:104061008429F582E43405F583EFF009B910E4857C
:104071002E82852D83A3A3E0900482F0E4F99004BD
:1040810082E0FFE9C39F5022E92403FFE433FEE508
:104091002E2FF582E52D3EF583E0FF748329F5820D
:1040A100E43404F583EFF00980D47E047F827C053B
:1040B1007D837A057B03121040E4F9900503E0FF4C
:1040C100E9C39F5022740429F582E43405F583E0A5
:1040D100FFE92401FDE433FCE5302DF582E52F3CB9
:1040E100F583EFF00980D4900503E0853082852FB8
:0240F10083F05A
:0140F30022AA
:00000001FF
