:03000000020800F3
:0C080000787FE4F6D8FD75813D020847C2
:100A6B000408FF10947B140CA3120101020304056C
:0C0A7B00060708081122334455667788EE
:060A9200E4FF0FBF13FC9E
:010A9800223B
:060A9900E4FF0FBF3AFC70
:010A9F002234
:0A0A8800D2A0C2A2120A99D2A22243
:02088C008F39A2
:10088E00E4F53AAF39EF3395E0FEC3E53A9FEE64F7
:10089E0080F8748098504A20A0FD120A92E4FE124D
:1008AE000A99E4FF0FBF03FC7420253AF8C000E656
:1008BE00FFC313D000F630A0097420253AF8E644A1
:1008CE0080F60EBE08D9120A997420253AF8E6A2CF
:1008DE00A030D001B34006120A99120A99053A8047
:0108EE00A267
:0108EF0022E6
:0208F0008F393E
:1008F200E4F53AAF39EF3395E0FEC3E53A9FEE6493
:1009020080F8748098504A20A0FDE4FF0FBF05FCD8
:10091200E4FEE4FF0FBF05FC7420253AF8C000E6B0
:10092200FDC313D000F630A0097420253AF8E6443E
:1009320080F60EBE08DCE4FF0FBF0AFC7420253AE5
:10094200F8E6A2A030D001B34003120A92053A8021
:01095200A202
:010953002281
:0809B3008F398B3A8A3B893C25
:1009BB00E4FEEEC39539504DAB3AAA3BA93C8E826F
:1009CB00758300120A3EFFA2D0E433F53DAD07C29A
:1009DB00A0E4FC120A99E4FF0FBF05FCED30E00424
:1009EB00D2A08002C2A0EDC313FD0CBC08E5120A15
:1009FB0099E53D24FF92A0120A99D2A0120A9912EE
:050A0B000A990E80AD08
:010A100022C3
:080954008F398B3A8A3B893C84
:10095C00E4FFEFC39539504EAB3AAA3BA93C8F82CA
:10096C00758300120A3EFDA2D0E433F53DC2A0E42B
:10097C00FCE4FE0EBE07FCED30E004D2A08002C207
:10098C00A0EDC313FD0CBC08E8E4FE0EBE09FCE5AB
:10099C003D24FF92A0E4FE0EBE09FCD2A0E4FE0EA4
:0609AC00BE0BFC0F80AC45
:0109B2002222
:100A1100120A887F1112088C120A997B007A0079D8
:100A2100087F041209B37F0412088C7B007A0079D5
:0D0A31000C7F141209547F0A1208F080FE99
:10080C00020A11E493A3F8E493A34003F68001F2E7
:10081C0008DFF48029E493A3F85407240CC8C333ED
:10082C00C4540F4420C8834004F456800146F6DFBC
:10083C00E4800B0102040810204080900A6BE47ED7
:10084C00019360BCA3FF543F30E509541FFEE493B1
:10085C00A360010ECF54C025E060A840B8E493A378
:10086C00FAE493A3F8E493A3C8C582C8CAC583CAA3
:10087C00F0A3C8C582C8CAC583CADFE9DEE780BE5B
:010A8700006E
:100A3E00BB010CE58229F582E5833AF583E022506D
:100A4E0006E92582F8E622BBFE06E92582F8E222B7
:0D0A5E00E58229F582E5833AF583E49322D1
:00000001FF
