:03000000020800F3
:0C080000787FE4F6D8FD758129020847D6
:1008B800190800000000000000000000000000000F
:1008C80000000000000000000000000421FF109458
:0808D8007B05250084000008E7
:06094B00E4FF0FBF1AFCDF
:010951002283
:10092E00758920758DFD758BFD7598D05387EFD227
:05093E008EE4F5A82283
:08094300C2A012094BD2A02250
:10091800E4FEEEC39F500E3098FD74082EF8A69999
:05092800C2980E80EDF5
:01092D0022A7
:1008FE00E4FE74212EF8E6A2D0929BF5993099FD74
:09090E00C29912094B0EBE04E966
:0109170022BD
:1008E100E4FF74252FF8E6A2D0929BF5993099FD8B
:0C08F100C299E4FE0EBE04FC0FBF05E639
:0108FD0022D8
:10088C0012092E1209437F1112091812094B120872
:10089C00FE7F0412091812094B758BFF758DFF43EF
:0C08AC0087801208E17F0B12091880FE03
:10080C0002088CE493A3F8E493A34003F68001F26E
:10081C0008DFF48029E493A3F85407240CC8C333ED
:10082C00C4540F4420C8834004F456800146F6DFBC
:10083C00E4800B01020408102040809008B8E47E8C
:10084C00019360BCA3FF543F30E509541FFEE493B1
:10085C00A360010ECF54C025E060A840B8E493A378
:10086C00FAE493A3F8E493A3C8C582C8CAC583CAA3
:10087C00F0A3C8C582C8CAC583CADFE9DEE780BE5B
:0108E0000017
:00000001FF
