:03000000020800F3
:0C080000787FE4F6D8FD758125020847DA
:0708F6000521008400000849
:0608FE00E4FF0FBF1BFC2C
:0109040022D0
:0A08EC00D2B1C2A01208FED2A02271
:1008D700758920758DFD758BFD7598D05387EFD27F
:0508E7008EE4F5A822DB
:1008C100E4FEEEC39F500E3098FD74082EF8A699F1
:0508D100C2980E80ED4D
:0108D60022FF
:1008A700E4FE74212EF8E6A2D0929BF5993099FDCB
:0908B700C2991208FE0EBE05E90B
:0108C0002215
:10088C001208D71208EC7F111208C11208FE1208C8
:0B089C00A77F0B1208C185118080FEB1
:10080C0002088CE493A3F8E493A34003F68001F26E
:10081C0008DFF48029E493A3F85407240CC8C333ED
:10082C00C4540F4420C8834004F456800146F6DFBC
:10083C00E4800B01020408102040809008F6E47E4E
:10084C00019360BCA3FF543F30E509541FFEE493B1
:10085C00A360010ECF54C025E060A840B8E493A378
:10086C00FAE493A3F8E493A3C8C582C8CAC583CAA3
:10087C00F0A3C8C582C8CAC583CADFE9DEE780BE5B
:0108FD0000FA
:00000001FF
