:020000040000FA
:10000000A8020010650100006D0100006F010000F2
:100010007101000073010000750100000000000084
:100020000000000000000000000000007701000058
:1000300079010000000000007B0100007D0100004C
:100040007F0100007F0100007F0100007F010000B0
:100050007F0100007F0100007F0100007F010000A0
:100060007F0100007F0100007F0100007F01000090
:100070007F0100007F0100007F0100007F01000080
:100080007F0100007F0100007F0100007F01000070
:100090007F0100007F0100007F0100007F01000060
:1000A0007F0100007F0100007F0100007F01000050
:1000B0007F0100007F0100007F0100007F01000040
:1000C0007F01000000F002F800F03CF80AA090E880
:1000D000000C82448344AAF10107DA4501D100F003
:1000E00031F8AFF2090EBAE80F0013F0010F18BF94
:1000F000FB1A43F0010318473401000054010000CB
:10010000103A24BF78C878C1FAD8520724BF30C843
:1001100030C144BF04680C60704700000023002415
:1001200000250026103A28BF78C1FBD8520728BF07
:1001300030C148BF0B6070471FB500F070F81FBD9D
:1001400010B510BD00F02FF81146FFF7F5FF00F0D5
:1001500014FB00F04DF803B4FFF7F2FF03BC00F00E
:1001600057F800000948804709480047FEE7FEE7C6
:10017000FEE7FEE7FEE7FEE7FEE7FEE7FEE7FEE757
:1001800004480549034A054B70470000410400003C
:10019000C5000000A8000010A8020010A800001070
:1001A000704770477047754600F028F8AE46050066
:1001B0006946534620F00700854618B020B5FFF782
:1001C000DFFFBDE820404FF000064FF000074FF082
:1001D00000084FF0000B21F00701AC46ACE8C00965
:1001E000ACE8C009ACE8C009ACE8C0098D4670476E
:1001F0000446AFF300802046FFF7ADFF004870478C
:100200004400001001487047704700BF48000010CC
:1002100001491820ABBEFEE726000200704710B56A
:10022000FFF7F0FF4FF00001016010BD040800006F
:100230000000001024000000000100002808000059
:1002400024000010840200001C01000000000000D7
:10025000000000000000000000000000000000009E
:10026000000000000000000000000000000000008E
:10027000000000000000000000000000000000007E
:10028000000000000000000000000000000000006E
:10029000000000000000000000000000000000005E
:1002A000000000000000000000000000000000004E
:1002B000000000000000000000000000000000003E
:1002C000000000000000000000000000000000002E
:1002D000000000000000000000000000000000001E
:1002E000000000000000000000000000000000000E
:1002F000000000000000000000000000FFFFFFFF02
:1003000091480068C0F30160032868D18F480068F5
:1003100010F0030006D0012823D002283FD0032884
:100320005CD100E000BF88480068C0F30E0000F117
:1003300001004FEA4000864900FB01F08549D1F8F1
:100340008810C1F3074101F10101B0FBF1F18248CE
:100350000068C0B200F10100B1FBF0F07F49086015
:100360003CE079480068C0F30E0000F101004FEA5C
:1003700040007B4900FB01F07649D1F88810C1F3B9
:10038000074101F10101B0FBF1F173480068C0B20F
:1003900000F10100B1FBF0F0704908601EE06A480E
:1003A0000068C0F30E0000F101004FEA40004FF476
:1003B000FA4100FB01F06749D1F88810C1F3074109
:1003C00001F10101B0FBF1F163480068C0B200F136
:1003D0000100B1FBF0F06149086000BF2FE05B480D
:1003E000006810F0030006D0012810D0022819D0B0
:1003F000032823D100E000BF57480068C0B200F1D5
:1004000001005349B1FBF0F05449086016E052482E
:100410000068C0B200F101005149B1FBF0F04F4952
:1004200008600BE04C480068C0B200F101004FF4D6
:10043000FA41B1FBF0F04949086000BF00BF7047C6
:1004400020204849086000BF4648006810F0400F6F
:10045000FAD00320404908604FF001003D49C1F83F
:100460000C014148414908604FF0AA00404908602A
:100470004FF0550008604FF001003E4908604FF012
:10048000AA003B4908604FF055003249C1F88C0082
:1004900000BF2D48006810F0806FFAD00320354966
:1004A00008604FF0AA002B49C1F88C004FF05500AE
:1004B0002F49086000BF2448006810F0407FFAD040
:1004C00023202D4908604FF0AA002249C1F8AC0052
:1004D0004FF05500294908604FF001002849086095
:1004E0004FF0AA00254908604FF055001949C1F89E
:1004F000AC0000BF2348006810F4806FFAD00320DE
:100500001F4908604FF0AA001249C1F8AC004FF033
:1005100055001A49086000BF1A48006810F4407F6F
:10052000FAD00020184908600A49C1F8AC01174800
:10053000174908604FF000001649086043F23A007E
:10054000044908607047000088C00F400CC10F408C
:1005500000093D0000C00F4004C10F400000001022
:10056000001BB700A0C10F406300050084C00F400E
:100570008CC00F4080C00F40A4C00F40ACC00F40E3
:10058000A0C00F40A8C00F40A8C10F40DE872804BC
:10059000C4C00F40C8C10F40002107E0002201E0A5
:1005A000531CDAB2122AFBDB4B1CD9B28142F5DBB9
:1005B00070472DE9F04104460F467F208C490864BE
:1005C00000253DE000BF8A48406D10F0800FFAD151
:1005D0000026012C03D10320FFF7DEFF03E014B94E
:1005E0001E20FFF7D9FF4FF0000815E0012C03D1C2
:1005F0000820FFF7D1FF03E014B96420FFF7CCFF18
:1006000076107B48406D10F0800F01D046F08006D8
:1006100008F1010000F0FF08B8F1080FE6DB7548AB
:100620004655012C03D11820FFF7B6FF06E02CB980
:100630006420FFF7B1FFC820FFF7AEFF681CC5B20A
:10064000BD42BFDBBDE8F0812DE9F04704460F460F
:100650009046FF206649086400266AE018F806A064
:1006600000256348406D20F08000614948654FF0E7
:10067000000921E0012C03D10820FFF78DFF03E0E2
:1006800014B96720FFF788FF1AF0010F08D0584807
:10069000406D40F0800056494865681CC5B205E0D1
:1006A0005348406D20F08000514948654FEA6A0A7E
:1006B00009F1010000F0FF09B9F1080FDADB012CA4
:1006C00003D10820FFF768FF03E014B96420FFF7A7
:1006D00063FF05EBD5714910A5EB4101012906D156
:1006E0004348406D40F080004149486505E040487E
:1006F000406D20F080003E494865012C03D1082060
:10070000FFF74AFF03E014B96420FFF745FF3848BC
:10071000406D40F0800036494865012C03D110201F
:10072000FFF73AFF03E014B9C820FFF735FF701C4C
:10073000C6B2BE4292DBBDE8F08700B52C48006C23
:1007400040F001002A4908640846006C40F080002F
:1007500008640846406D20F0010048656420FFF7FA
:100760001BFF2348406D40F0800021494865084642
:10077000406D40F00100486500BD1F484478FFF718
:10078000DCFF11210020FFF714FF1C4A0421002088
:10079000FFF75AFF04210020FFF70BFF164A05213F
:1007A0000120FFF751FF01210846FFF702FF114822
:1007B0000078A04209D1104A521D11210120FFF7F3
:1007C00043FF02210120FFF7F4FE0A480078612868
:1007D0000CD108484078082808D1094A0521012091
:1007E000FFF732FF0B210120FFF7E3FE00BFFEE71A
:1007F00000C00920240000100800001004000010B0
:100800001E00001000E1F505FF10957A8008000039
:100810001102AAAAAAAAAAAAAAAAFFFFFFFFFFFF7B
:08082000FFFF00C0000008000A
:040000050000016591
:00000001FF
