:03000000020800F3
:0C080000787FE4F6D8FD758142020847BD
:1009B1001708800800001201010203040506070858
:1009C100081122334455667788051F00C0000008CE
:0609DF00E4FF0FBF03FC62
:0109E50022EF
:0609E600E4FF0FBF1CFC42
:0109EC0022E8
:0D09D2001209DFD2A0C2A21209E6D2A222B1
:02088C008F3E9D
:10088E00E4F53FAF3EEF3395E0FEC3E53F9FEE64E8
:10089E0080F8748098504120A0FDE4FE1209E674A1
:1008AE0024253FF8C000E6FFC313D000F630A009A0
:1008BE007424253FF8E64480F60EBE08DF1209E6E2
:1008CE007424253FF8E6A2A030D001B340061209E9
:0808DE00E61209E6053F80ABBC
:0108E60022EF
:0808E7008F3E8B3F8A408941DE
:1008EF00E4FEEEC3953E5047AB3FAA40A9418E822E
:1008FF00758300120984FFA2D0E433F542AD07C21D
:10090F00A0E4FC1209E6ED30E004D2A08002C2A000
:10091F00EDC313FD0CBC08EB1209E6E54224FF9270
:0F092F00A01209E6D2A01209E61209E60E80B363
:01093E002296
:10093F0085093D1209D27F1112088C1209E67B003E
:10094F007A0079087F051208E77F0112088CE524E9
:10095F00B53D107B007A00790D7F121208E77F02F8
:10096F0012088C7B007A00791F7F051208E77F0A37
:05097F0012088C80FE4F
:10080C0002093FE493A3F8E493A34003F68001F2BA
:10081C0008DFF48029E493A3F85407240CC8C333ED
:10082C00C4540F4420C8834004F456800146F6DFBC
:10083C00E4800B01020408102040809009B1E47E92
:10084C00019360BCA3FF543F30E509541FFEE493B1
:10085C00A360010ECF54C025E060A840B8E493A378
:10086C00FAE493A3F8E493A3C8C582C8CAC583CAA3
:10087C00F0A3C8C582C8CAC583CADFE9DEE780BE5B
:0109D1000025
:10098400BB010CE58229F582E5833AF583E0225028
:1009940006E92582F8E622BBFE06E92582F8E22272
:0D09A400E58229F582E5833AF583E493228C
:00000001FF
